:020000040800F2
:1000000000500020851A0008211A0008291A00084B
:10001000311A0008391A0008411A000800000000CF
:10002000000000000000000000000000491A000865
:10003000551A000800000000611A00086D1A000837
:10004000CD1A0008CD1A0008CD1A0008CD1A0008F4
:10005000CD1A0008CD1A0008CD1A0008CD1A0008E4
:10006000CD1A0008CD1A0008CD1A0008CD1A0008D4
:10007000CD1A0008CD1A0008CD1A0008CD1A0008C4
:10008000CD1A0008CD1A0008CD1A0008CD1A0008B4
:10009000CD1A0008CD1A0008CD1A0008CD1A0008A4
:1000A000CD1A0008CD1A0008CD1A0008CD1A000894
:1000B000CD1A0008CD1A0008CD1A0008CD1A000884
:1000C000CD1A0008CD1A0008CD1A0008CD1A000874
:1000D000CD1A0008CD1A0008CD1A0008CD1A000864
:1000E000CD1A0008CD1A0008CD1A00080000000043
:1000F0000000000000000000000000000000000000
:0C01000000000000000000005FF808F1A3
:1001100010B5054C237833B9044B13B10448AFF341
:1001200000800123237010BD80000020000000002B
:100130000C52000808B5034B1BB103490348AFF349
:10014000008008BD00000000840000200C52000860
:1001500081F0004102E000BF83F0004330B54FEA78
:1001600041044FEA430594EA050F08BF90EA020FE5
:100170001FBF54EA000C55EA020C7FEA645C7FEA78
:10018000655C00F0E2804FEA5454D4EB5555B8BF9B
:100190006D420CDD2C4480EA020281EA030382EA0C
:1001A000000083EA010180EA020281EA0303362D9E
:1001B00088BF30BD11F0004F4FEA01314FF4801C71
:1001C0004CEA113102D0404261EB410113F0004F83
:1001D0004FEA03334CEA133302D0524263EB43033A
:1001E00094EA050F00F0A780A4F10104D5F1200ED8
:1001F0000DDB02FA0EFC22FA05F2801841F1000133
:1002000003FA0EF2801843FA05F359410EE0A5F106
:1002100020050EF1200E012A03FA0EFC28BF4CF037
:10022000020C43FA05F3C01851EBE37101F00045ED
:1002300007D54FF0000EDCF1000C7EEB00006EEBFA
:100240000101B1F5801F1BD3B1F5001F0CD3490884
:100250005FEA30004FEA3C0C04F101044FEA4452DB
:1002600012F5800F80F09A80BCF1004F08BF5FEA62
:10027000500C50F1000041EB045141EA050130BD42
:100280005FEA4C0C404141EB0101013C28BFB1F554
:10029000801FE9D291F0000F04BF01460020B1FA9F
:1002A00081F308BF2033A3F10B03B3F120020CDA72
:1002B0000C3208DD02F1140CC2F10C0201FA0CF050
:1002C00021FA02F10CE002F11402D8BFC2F1200CB5
:1002D00001FA02F120FA0CFCDCBF41EA0C0190406B
:1002E000E41AA2BF01EB0451294330BD6FEA0404B4
:1002F0001F3C1CDA0C340EDC04F11404C4F120029F
:1003000020FA04F001FA02F340EA030021FA04F3B0
:1003100045EA030130BDC4F10C04C4F1200220FA07
:1003200002F001FA04F340EA0300294630BD21FA45
:1003300004F0294630BD94F0000F83F4801306BF0B
:1003400081F480110134013D4EE77FEA645C18BFFF
:100350007FEA655C29D094EA050F08BF90EA020F96
:1003600005D054EA000C04BF1946104630BD91EA8E
:10037000030F1EBF0021002030BD5FEA545C05D191
:100380004000494128BF41F0004130BD14F58004D0
:100390003CBF01F5801130BD01F0004545F0FE4144
:1003A00041F470014FF0000030BD7FEA645C1ABF79
:1003B000194610467FEA655C1CBF0B46024650EAB0
:1003C000013406BF52EA033591EA030F41F40021DC
:1003D00030BD00BF90F0000F04BF0021704730B562
:1003E0004FF4806404F132044FF000054FF0000137
:1003F00050E700BF90F0000F04BF0021704730B5F8
:100400004FF4806404F1320410F0004548BF4042CC
:100410004FF000013EE700BF42004FEAE2014FEA21
:1004200031014FEA02701FBF12F07F4393F07F4FFC
:1004300081F06051704732F07F4208BF704793F0FF
:100440007F4F04BF41F40021704730B54FF4607412
:1004500001F0004521F000411CE700BF50EA010215
:1004600008BF704730B54FF000050AE050EA0102BE
:1004700008BF704730B511F0004502D5404261EB2E
:1004800041014FF4806404F132045FEA915C3FF46F
:10049000D8AE4FF003025FEADC0C18BF03325FEA0C
:1004A000DC0C18BF033202EBDC02C2F1200300FABD
:1004B00003FC20FA02F001FA03FE40EA0E0021FAE2
:1004C00002F11444BDE600BF70B54FF0FF0C4CF4D0
:1004D000E06C1CEA11541DBF1CEA135594EA0C0F82
:1004E00095EA0C0F00F0DEF82C4481EA030621EABD
:1004F0004C5123EA4C5350EA013518BF52EA0335F8
:1005000041F4801143F4801338D0A0FB02CE4FF0A9
:100510000005E1FB02E506F00042E0FB03E54FF0D9
:100520000006E1FB03569CF0000F18BF4EF0010ED1
:10053000A4F1FF04B6F5007F64F5407404D25FEACD
:100540004E0E6D4146EB060642EAC62141EA555180
:100550004FEAC52040EA5E504FEACE2EB4F1FD0CC2
:1005600088BFBCF5E06F1ED8BEF1004F08BF5FEA40
:10057000500E50F1000041EB045170BD06F00046F2
:1005800046EA010140EA020081EA0301B4EB5C049F
:10059000C2BFD4EB0C0541EA045170BD41F4801197
:1005A0004FF0000E013C00F3AB8014F1360FDEBFBC
:1005B000002001F0004170BDC4F10004203C35DA98
:1005C0000C341BDC04F11404C4F1200500FA05F31B
:1005D00020FA04F001FA05F240EA020001F00042BC
:1005E00021F0004110EBD37021FA04F642EB060132
:1005F0005EEA430E08BF20EAD37070BDC4F10C045C
:10060000C4F1200500FA04F320FA05F001FA04F21F
:1006100040EA020001F0004110EBD37041F100010B
:100620005EEA430E08BF20EAD37070BDC4F1200516
:1006300000FA05F24EEA020E20FA04F301FA05F27E
:1006400043EA020321FA04F001F0004121FA04F226
:1006500020EA020000EBD3705EEA430E08BF20EAF6
:10066000D37070BD94F0000F0FD101F00046400030
:1006700041EB010111F4801F08BF013CF7D041EAB2
:10068000060195F0000F18BF704703F000465200B6
:1006900043EB030313F4801F08BF013DF7D043EA87
:1006A0000603704794EA0C0F0CEA135518BF95EA3D
:1006B0000C0F0CD050EA410618BF52EA4306D1D1C4
:1006C00081EA030101F000414FF0000070BD50EAE3
:1006D000410606BF1046194652EA430619D094EA6D
:1006E0000C0F02D150EA013613D195EA0C0F05D157
:1006F00052EA03361CBF104619460AD181EA0301AB
:1007000001F0004141F0FE4141F470014FF0000062
:1007100070BD41F0FE4141F4780170BD70B54FF0FD
:10072000FF0C4CF4E06C1CEA11541DBF1CEA13557D
:1007300094EA0C0F95EA0C0F00F0A7F8A4EB05045F
:1007400081EA030E52EA03354FEA013100F0888056
:100750004FEA03334FF0805545EA131343EA12631F
:100760004FEA022245EA111545EA10654FEA0026D4
:100770000EF000419D4208BF964244F1FD0404F58D
:10078000407402D25B084FEA3202B61A65EB0305E9
:100790005B084FEA32024FF480104FF4002CB6EBA6
:1007A000020E75EB030E22BFB61A754640EA0C0026
:1007B0005B084FEA3202B6EB020E75EB030E22BF66
:1007C000B61A754640EA5C005B084FEA3202B6EBA7
:1007D000020E75EB030E22BFB61A754640EA9C0066
:1007E0005B084FEA3202B6EB020E75EB030E22BF36
:1007F000B61A754640EADC0055EA060E18D04FEAF4
:10080000051545EA16754FEA06164FEAC30343EA93
:1008100052734FEAC2025FEA1C1CC0D111F4801F60
:100820000BD141EA00014FF000004FF0004CB6E759
:1008300011F4801F04BF01430020B4F1FD0C88BFF8
:10084000BCF5E06F3FF6AFAEB5EB030C04BFB6EB03
:10085000020C5FEA500C50F1000041EB045170BDF6
:100860000EF0004E4EEA113114EB5C04C2BFD4EB23
:100870000C0541EA045170BD41F480114FF0000EA7
:10088000013C90E645EA060E8DE60CEA135594EA23
:100890000C0F08BF95EA0C0F3FF43BAF94EA0C0F26
:1008A0000AD150EA01347FF434AF95EA0C0F7FF49B
:1008B00025AF104619462CE795EA0C0F06D152EAEF
:1008C00003353FF4FDAE1046194622E750EA4106D3
:1008D00018BF52EA43067FF4C5AE50EA41047FF4E4
:1008E0000DAF52EA43057FF4EBAE12E74FF0FF3C49
:1008F00006E000BF4FF0010C02E000BF4FF0010C1A
:100900004DF804CD4FEA410C7FEA6C5C4FEA430C92
:1009100018BF7FEA6C5C1BD001B050EA410C0CBFE1
:1009200052EA430C91EA030F02BF90EA020F002043
:10093000704710F1000F91EA030F58BF994208BFAA
:1009400090422CBFD8176FEAE37040F00100704767
:100950004FEA410C7FEA6C5C02D150EA013C07D1BE
:100960004FEA430C7FEA6C5CD6D152EA033CD3D009
:100970005DF8040B704700BF8446104662468C4603
:100980001946634600E000BF01B5FFF7B7FF002836
:1009900048BF10F1000F01BD4DF808EDFFF7F4FF5F
:1009A0000CBF012000205DF808FB00BF4DF808EDEA
:1009B000FFF7EAFF34BF012000205DF808FB00BF0D
:1009C0004DF808EDFFF7E0FF94BF012000205DF82F
:1009D00008FB00BF4DF808EDFFF7CEFF94BF0120E4
:1009E00000205DF808FB00BF4DF808EDFFF7C4FFDD
:1009F00034BF012000205DF808FB00BF4FEA410C26
:100A00007FEA6C5C02D150EA013C0AD14FEA430C08
:100A10007FEA6C5C02D152EA033C02D14FF0000045
:100A200070474FF0010070474FEA4102B2F1E043D6
:100A300024BFB3F5001CDCF1FE5C0DD901F0004CC5
:100A40004FEAC0024CEA5070B2F1004F40EB830015
:100A500008BF20F00100704711F0804F21D113F141
:100A60003872BCBF01F00040704741F480114FEA7A
:100A70005252C2F11802C2F1200C10FA0CF320FA03
:100A800002F018BF40F001004FEAC1234FEAD32320
:100A900003FA0CFC40EA0C0023FA02F34FEA43038A
:100AA000CCE77FEA625307D150EA01331EBF4FF013
:100AB000FE4040F44000704701F0004040F0FE402E
:100AC00040F40000704700BF4FF0FF0C1CEAD0520A
:100AD0001EBF1CEAD15392EA0C0F93EA0C0F6FD0A1
:100AE0001A4480EA010C400218BF5FEA41211ED07F
:100AF0004FF0006343EA501043EA5111A0FB01316B
:100B00000CF00040B1F5000F3EBF490041EAD3713F
:100B10005B0040EA010062F17F02FD2A1DD8B3F1BB
:100B2000004F40EBC25008BF20F00100704790F02A
:100B3000000F0CF0004C08BF49024CEA502040EA7C
:100B400051207F3AC2BFD2F1FF0340EAC250704742
:100B500040F400004FF00003013A5DDC12F1190F80
:100B6000DCBF00F000407047C2F10002410021FAF2
:100B700002F1C2F1200200FA02FC5FEA310040F10A
:100B8000000053EA4C0308BF20EADC70704792F083
:100B9000000F00F0004C02BF400010F4000F013ABB
:100BA000F9D040EA0C0093F0000F01F0004C02BFB6
:100BB000490011F4000F013BF9D041EA0C018FE725
:100BC0000CEAD15392EA0C0F18BF93EA0C0F0AD02B
:100BD00030F0004C18BF31F0004CD8D180EA010051
:100BE00000F00040704790F0000F17BF90F0004FEA
:100BF000084691F0000F91F0004F14D092EA0C0FCC
:100C000001D142020FD193EA0C0F03D14B0218BF5E
:100C1000084608D180EA010000F0004040F0FE40A4
:100C200040F40000704740F0FE4040F44000704740
:100C30004FF0FF0C1CEAD0521EBF1CEAD15392EABF
:100C40000C0F93EA0C0F69D0A2EB030280EA010CAF
:100C500049024FEA402037D04FF0805343EA111148
:100C600043EA10130CF000408B4238BF5B0042F1A6
:100C70007D024FF4000C8B4224BF5B1A40EA0C004B
:100C8000B3EB510F24BFA3EB510340EA5C00B3EB7D
:100C9000910F24BFA3EB910340EA9C00B3EBD10F6B
:100CA00024BFA3EBD10340EADC001B0118BF5FEABD
:100CB0001C1CE0D1FD2A3FF650AF8B4240EBC250E6
:100CC00008BF20F0010070470CF0004C4CEA5020A7
:100CD0007F32C2BFD2F1FF0340EAC250704740F4F6
:100CE00000004FF00003013A37E792F0000F00F0E8
:100CF000004C02BF400010F4000F013AF9D040EA66
:100D00000C0093F0000F01F0004C02BF490011F4F9
:100D1000000F013BF9D041EA0C0195E70CEAD153F1
:100D200092EA0C0F08D142027FF47DAF93EA0C0FD8
:100D30007FF470AF084676E793EA0C0F04D14B02BC
:100D40003FF44CAF08466EE730F0004C18BF31F06E
:100D5000004CCAD130F000427FF45CAF31F0004368
:100D60007FF43CAF5FE700BF4FF0FF3C06E000BF01
:100D70004FF0010C02E000BF4FF0010C4DF804CD24
:100D80004FEA40024FEA41037FEA226C18BF7FEA34
:100D9000236C11D001B052EA530C18BF90EA010F36
:100DA00058BFB2EB030088BFC81738BF6FEAE170C5
:100DB00018BF40F0010070477FEA226C02D15FEA61
:100DC000402C05D17FEA236CE4D15FEA412CE1D0CD
:100DD0005DF8040B704700BF844608466146FFE794
:100DE0000FB5FFF7C9FF002848BF10F1000F0FBD76
:100DF0004DF808EDFFF7F4FF0CBF012000205DF86F
:100E000008FB00BF4DF808EDFFF7EAFF34BF0120F3
:100E100000205DF808FB00BF4DF808EDFFF7E0FF8C
:100E200094BF012000205DF808FB00BF4DF808EDDD
:100E3000FFF7D2FF94BF012000205DF808FB00BF40
:100E40004DF808EDFFF7C8FF34BF012000205DF822
:100E500008FB00BF4FEA4002B2F1FE4F0FD34FF044
:100E60009E03B3EB12620DD94FEA002343F0004317
:100E700010F0004F23FA02F018BF404270474FF0C5
:100E80000000704712F1610F01D1420205D110F04C
:100E9000004008BF6FF0004070474FF000007047FF
:100EA00080B485B000AFF860B9607A603B60074AF3
:100EB000BB681360FB687A681A60FB683A685A601E
:100EC00000BF1437BD4680BC704700BF9C000020A7
:100ED00080B584B000AF78601F4B1B68184600F0E7
:100EE00055FF1D4B1B684FF47A71184601F028F826
:100EF000194B1B68184601F029F90346FB81FB8951
:100F00001946786800F02CF8786800F059F878688D
:100F100000F0AAF8104B1B68184601F017F90346B9
:100F2000BB81BB891946786800F01AF8786800F030
:100F300071F8786800F0B8F8786800F0C9F8786857
:100F400000F008F9044B1B68184600F0CDFF00BF05
:100F50001037BD4680BD00BF9C000020000000008F
:100F600080B584B000AF78600B467B807B881846E4
:100F7000FFF740FA0EA3D3E90023FFF7A5FA0246D4
:100F80000B46104619460CA3D3E90023FFF7C6FB16
:100F900002460B4610461946FFF746FD0346FB6026
:100FA0007B68FA68DA6100BF1037BD4680BD00BFBC
:100FB0006666666666660A400000000000FEAF4096
:100FC00080B582B000AF78607B68DB691846FFF7B8
:100FD00023FA02460B464FF000000C49FFF79EFB38
:100FE00002460B46104619464FF00002084BFFF729
:100FF000B3F802460B4610461946FFF715FD0246A8
:101000007B68DA6000BF0837BD4680BD0080404085
:101010000000244080B582B000AF78607B68DB6957
:101020001846FFF7F9F902460B464FF000000C494D
:10103000FFF774FB02460B46104619464FF00002BC
:10104000084BFFF789F802460B4610461946FFF792
:10105000EBFC02467B681A6100BF0837BD4680BDC5
:10106000008040400000244080B582B000AF78602E
:101070007B68DB681846FFF7CFF909A3D3E90023A3
:10108000FFF74CFB02460B4610461946FFF7CCFC17
:1010900002467B689A6000BF0837BD4680BD00BF2E
:1010A0009A9999999999114080B582B000AF78606A
:1010B0007B681A697B689B6819461046FFF7B8FD84
:1010C00003461A467B689A6100BF0837BD4680BD5B
:1010D000B0B582B000AF78607B689B691846FFF7B7
:1010E0009BF902460B461046194602F019FF0446CA
:1010F0000D467B681B681846FFF78EF902460B46C3
:1011000020462946FFF728F802460B4614461D469E
:101110007B685B681846FFF77FF902460B4620465E
:101120002946FFF7FBFA02460B464FF0000008493C
:1011300002F028FF02460B4610461946FFF774FCE2
:1011400002467B685A6100BF0837BD46B0BD00BF8C
:101150000000244080B582B000AF78607B685B6996
:1011600008491846FFF764FD03461A467B681A6271
:101170007B681B6A184600F0FDF900BF0837BD46C2
:1011800080BD00BF00401C4680B582B000AF034662
:10119000FB71384AFB791370374B08221A70374BB2
:1011A00000221A70334B1B78012B07D9334B1B7865
:1011B00043F00803DAB2314B1A7006E02F4B1B786C
:1011C00043F00403DAB22D4B1A7000F085F9322097
:1011D00000F0E0FC284B1B78184600F043F94FF470
:1011E0007A7000F0D7FC302000F02BF941F2941017
:1011F00000F09AF9302000F024F941F2941000F048
:1012000093F9302000F01DF941F2941000F08CF9B0
:10121000202000F016F9642000F086F9174B1B78A7
:1012200043F02003DBB2184600F0CEF8144B042242
:101230001A7000F075F800F02BF8124B02221A70A9
:10124000104B1B7843F00403DBB2184600F0BCF8E7
:1012500041F2941000F068F90B49002000F076F894
:101260000A49012000F072F800F01DF800BF0837AD
:10127000BD4680BDA3000020A4000020A0000020E7
:10128000A1000020A2000020000000200800002093
:1012900080B500AF012000F097F84FF4FA6000F03D
:1012A00043F900BF80BD80B500AF022000F08CF88C
:1012B0004FF4FA6000F038F900BF80BD90B587B0F8
:1012C00000AF03460A46FB711346BB71124B07F190
:1012D00008040FCB84E80F00104B1B78BA799A42B0
:1012E00003D30E4B1B78013BBB71BB799B001833BA
:1012F0003B4453F8103CDAB2FB791344DBB25BB2E7
:1013000063F07F035BB2DBB2184600F05DF800BF0C
:101310001C37BD4690BD00BF28520008A300002026
:1013200080B500AF084B1B7843F00403DAB2064BDC
:101330001A70054B1B7843F00803DBB2184600F027
:1013400043F800BF80BD00BFA100002080B584B07D
:1013500000AF03463960FB71FB7903F00703FB71B3
:10136000FB79DB005BB243F040035BB2DBB21846B3
:1013700000F02AF80023FB6009E0FB683A68134498
:101380001B78184600F02EF8FB680133FB60FB6801
:10139000072BF2DD00BF00BF1037BD4680BD80B512
:1013A00082B000AF786006E07B685A1C7A601B78D8
:1013B000184600F017F87B681B78002BF4D100BFAB
:1013C00000BF0837BD4680BD80B582B000AF034680
:1013D000FB71FB790021184600F012F800BF0837B6
:1013E000BD4680BD80B582B000AF0346FB71FB797E
:1013F0000121184600F004F800BF0837BD4680BD43
:1014000080B584B000AF03460A46FB711346BB713A
:10141000FB7923F00F03FB73FB791B01BB73FA7B92
:10142000BB791343DBB2184600F00BF8BA7BBB79EB
:101430001343DBB2184600F004F800BF1037BD4676
:1014400080BD80B582B000AF0346FB71FB791846C2
:1014500000F008F8FB79184600F020F800BF0837C4
:10146000BD4680BD80B586B002AF0346FB71094B17
:101470001A78FB791343DBB2FB7307F10F020A23DF
:10148000009301234E21044801F0E8FB00BF103710
:10149000BD4680BDA4000020D800002080B582B0E9
:1014A00000AF0346FB71FB7943F00403DBB218463F
:1014B000FFF7D8FF142000F037F8FB7923F004037E
:1014C000DBB21846FFF7CEFF142000F02DF800BF66
:1014D0000837BD4680BD000080B400AF104BDB680C
:1014E0000F4A23F08073D3600D4BDB680C4A43F046
:1014F0008073D3600B4B1B680A4A23F0010313600F
:10150000084B1B68074A43F001031360054B002298
:101510005A6000BF00BF00BF00BFBD4680BC70471F
:10152000F0ED00E0001000E080B487B000AF78601C
:101530000D4B1B680D4AA2FB03239A0C7B6802FB30
:1015400003F37B610A4B5B683B61094B5A683B695B
:10155000D31AFB60FB687A699A42F6D800BF00BFD5
:101560001C37BD4680BC70471000002083DE1B4343
:10157000001000E080B483B000AF7860034A7B685D
:10158000136000BF0C37BD4680BC7047500100207F
:1015900080B584B000AF4FF00003FB604FF07A538A
:1015A000BB6000F095FA00F06FF800F029F900F048
:1015B000F9F800F0B9F82E4B2E4A2F492F48FFF7C3
:1015C0006FFC2E48FFF784FC2C4B1B6AFB60F8680D
:1015D000FFF740FC3B460A22194602F02BFC022092
:1015E000FFF7D2FDFFF754FE00210020FFF766FE53
:1015F0002348FFF7D4FE01211120FFF75FFE3B4691
:101600001846FFF7CCFE4FF4FA6000F0C3FAB96851
:10161000F868FFF701FC0346002B14D001220821D3
:10162000184801F09BF900222021164801F096F994
:1016300000221021134801F091F9002240211148A5
:1016400001F08CF9BDE7002208210E4801F086F96F
:10165000012210210B4801F081F9012220210948C3
:1016600001F07CF901224021064801F077F9A8E752
:101670003F350EC0AAF1123FA80000202C01002027
:10168000385200080008014080B594B000AF07F15F
:10169000280328220021184602F010FC07F1140349
:1016A00000221A605A609A60DA601A613B1D0022BB
:1016B0001A605A609A60DA600223BB620123BB633E
:1016C0001023FB6300237B6407F12803184601F015
:1016D0001DFE0346002B01D000F0F0F80F237B61C4
:1016E0000023BB610023FB6100233B6200237B627C
:1016F00007F114030021184602F08AF80346002B74
:1017000001D000F0DBF802237B600023FB603B1D6F
:10171000184602F00BFA0346002B01D000F0CEF879
:1017200000BF5037BD4680BD80B584B000AF3B1DC3
:1017300000221A605A609A60184B194A1A60174BB7
:1017400000229A60154B00221A73144B00221A755E
:10175000124B4FF46022DA61104B00225A600F4B9B
:1017600001221A610D4800F039FA0346002B01D01E
:1017700000F0A4F800237B600123BB600023FB6022
:101780003B1D1946054800F0EDFC0346002B01D037
:1017900000F094F800BF1037BD4680BDA8000020BF
:1017A0000024014080B500AF124B134A1A60114B60
:1017B000124A5A600F4B00229A600E4B0022DA60E8
:1017C0000C4B4FF480421A610A4B00225A61094BBC
:1017D00000229A61074B0022DA61064B00221A624E
:1017E000044801F0F7F80346002B01D000F066F83A
:1017F00000BF80BDD800002000540040A08601003A
:1018000080B588B000AF07F1100300221A605A605B
:101810009A60DA60264B9B69254A43F01003936176
:10182000234B9B6903F01003FB60FB68204B9B6913
:101830001F4A43F0040393611D4B9B6903F00403AB
:10184000BB60BB681A4B9B69194A43F0080393615C
:10185000174B9B6903F008037B607B6800227821AB
:10186000144801F07BF84FF400533B6102237B6185
:101870000223FB6107F1100319460F4800F0EAFE4E
:1018800078233B6101237B610023BB610223FB6161
:1018900007F110031946074800F0DCFE0D21202057
:1018A00001F074F801F088F800BF2037BD4680BD14
:1018B00000100240000801400010014080B400AF59
:1018C00072B600BF00BFFDE780B485B000AF154B16
:1018D0009B69144A43F001039361124B9B6903F027
:1018E0000103BB60BB680F4BDB690E4A43F08053BA
:1018F000D3610C4BDB6903F080537B607B680A4B40
:101900005B68FB60FB6823F0E063FB60FB6843F00F
:101910000073FB60044AFB68536000BF1437BD4688
:1019200080BC7047001002400000014080B588B0C4
:1019300000AF786007F1100300221A605A609A60C5
:10194000DA607B681B68144A934221D1134B9B6970
:10195000124A43F400739361104B9B6903F40073C4
:10196000FB60FB680D4B9B690C4A43F004039361D9
:101970000A4B9B6903F00403BB60BB6801233B6116
:1019800003237B6107F110031946054800F062FE4E
:1019900000BF2037BD4680BD00240140001002403A
:1019A0000008014080B588B000AF786007F11003EF
:1019B00000221A605A609A60DA607B681B68154AD8
:1019C000934223D1144B9B69134A43F0080393615C
:1019D000114B9B6903F00803FB60FB68C0233B616C
:1019E00012237B610323FB6107F1100319460B48A7
:1019F00000F030FE084BDB69074A43F40013D36163
:101A0000054BDB6903F40013BB60BB6800BF2037E4
:101A1000BD4680BD0054004000100240000C014053
:101A200080B400AF00BFFDE780B400AF00BFFDE7AA
:101A300080B400AF00BFFDE780B400AF00BFFDE79A
:101A400080B400AF00BFFDE780B400AF00BFBD466B
:101A500080BC704780B400AF00BFBD4680BC7047FB
:101A600080B400AF00BFBD4680BC704780B500AFFA
:101A700000F074F800BF80BD80B400AF00BFBD4669
:101A800080BC7047FFF7F8FF0B480C490C4A002355
:101A900002E0D458C4500433C4188C42F9D3094A24
:101AA000094C002301E013600432A242FBD302F090
:101AB00013FAFFF76DFD7047000000208000002042
:101AC000E85200088000002090020020FEE700009D
:101AD00080B500AF084B1B68074A43F01003136042
:101AE000032000F083FD0F2000F008F8FFF7ECFE64
:101AF0000023184680BD00BF0020024080B582B0A0
:101B000000AF7860124B1A68124B1B7819464FF4DD
:101B10007A73B3FBF1F3B2FBF3F3184600F08DFDDB
:101B20000346002B01D001230EE07B680F2B0AD85F
:101B3000002279684FF0FF3000F063FD064A7B68B1
:101B40001360002300E0012318460837BD4680BD1E
:101B500010000020180000201400002080B400AF06
:101B6000054B1B781A46054B1B681344034A136048
:101B700000BFBD4680BC7047180000205401002003
:101B800080B400AF024B1B681846BD4680BC70474E
:101B90005401002080B584B000AF7860FFF7F0FFFB
:101BA000B8607B68FB60FB68B3F1FF3F05D00A4B70
:101BB0001B781A46FB681344FB6000BFFFF7E0FF89
:101BC0000246BB68D31AFA689A42F7D800BF00BF32
:101BD0001037BD4680BD00BF1800002080B586B01C
:101BE00000AF78600023FB7500233B610023BB60DE
:101BF0000023FB607B68002B01D10123BEE07B68E2
:101C00009B68002B7B689B6A002B09D17B680022B4
:101C1000DA627B68002283F824207868FFF786FE6A
:101C2000786800F0F1FB0346FB757B689B6A03F064
:101C30001003002B40F09980FB7D002B40F0958035
:101C40007B689B6A23F4885323F0020343F002026B
:101C50007B689A627B685A687B68DB691A437B6899
:101C60001B7B5B001343BA681343BB607B689B68B4
:101C7000B3F5807F03D07B689B68012B02D14FF4C2
:101C8000807300E000233A6913433B617B681B7D4E
:101C9000012B19D17B681B7B002B09D17B689B69C9
:101CA000013B5A033B69134343F400633B610BE080
:101CB0007B689B6A43F020027B689A627B68DB6AE0
:101CC00043F001027B68DA627B681B685B6823F47F
:101CD00069417B681B683A690A435A607B681B68E4
:101CE0009A68284B13407A681268B9680B4393606E
:101CF0007B689B68B3F5807F03D07B689B68012B72
:101D000004D17B681B69013B1B05FB607B681B687A
:101D1000DB6A23F470017B681B68FA680A43DA62A5
:101D20007B681B689A68184B1340BA689A420BD1BB
:101D30007B680022DA627B689B6A23F0030343F02E
:101D400001027B689A6218E07B689B6A23F01203A9
:101D500043F010027B689A627B68DB6A43F0010201
:101D60007B68DA620123FB7507E07B689B6A43F0BE
:101D700010027B689A620123FB75FB7D18461837B9
:101D8000BD4680BDFDF7E1FFFE0E1FFF80B584B0AC
:101D900000AF78600023FB737B6893F82430012B3D
:101DA00001D1022398E07B68012283F8242078681F
:101DB00000F0D0FA0346FB73FB7B002B40F08780DA
:101DC0007B689B6A23F4407323F0010343F4807221
:101DD0007B689A627B681B68414A934205D1414BFC
:101DE0005B6803F47023002B15D17B689B6A23F496
:101DF00080127B689A627B681B685B6803F480636F
:101E0000002B26D07B689B6A23F4405343F4805216
:101E10007B689A621DE07B689B6A43F480127B6852
:101E20009A627B681B682F4A934204D07B681B68C8
:101E30002B4A93420DD12B4B5B6803F48063002B3C
:101E400007D07B689B6A23F4405343F480527B683D
:101E50009A627B689B6A03F48053002B06D07B68F0
:101E6000DB6A23F006027B68DA6202E07B6800220C
:101E7000DA627B68002283F824207B681B686FF09D
:101E800002021A607B681B689B6803F46023B3F549
:101E9000602F13D17B681B68114A934205D1114B07
:101EA0005B6803F47023002B08D17B681B689A6879
:101EB0007B681B6842F4A0029A600CE07B681B6898
:101EC0009A687B681B6842F480129A6003E07B6822
:101ED000002283F82420FB7B18461037BD4680BDC6
:101EE000002801400024014080B584B000AF786034
:101EF0000023FB737B6893F82430012B01D102236C
:101F00001AE07B68012283F82420786800F07CFACC
:101F10000346FB73FB7B002B09D17B689B6A23F490
:101F2000885323F0010343F001027B689A627B68C7
:101F3000002283F82420FB7B18461037BD4680BD65
:101F400090B587B000AF7860396000237B610023D3
:101F5000FB6000233B61FFF713FE78617B681B6821
:101F60009B6803F48073002B0BD07B689B6A43F063
:101F700020027B689A627B68002283F82420012378
:101F8000D3E07B681B685B6803F48073002B31D15E
:101F90007B681B68DB6A03F47003002B2AD121E005
:101FA0003B68B3F1FF3F1DD03B68002B07D0FFF724
:101FB000E7FD02467B69D31A3A689A4212D27B68DF
:101FC0001B681B6803F00203002B0BD17B689B6A24
:101FD00043F004027B689A627B68002283F8242025
:101FE0000323A2E07B681B681B6803F00203002B3D
:101FF000D6D070E04F4B1C68022001F04DFE034626
:10200000B4FBF3F27B681B6819694B4B0B40002B48
:1020100018D17B681B68D968484B0B40002B11D145
:102020007B681B681969464B0B40002B08D17B6805
:102030001B68D968434B0B40002B01D1142320E0CF
:1020400029231EE07B681B6819693D4B0B40002B60
:1020500006D17B681B68D9683A4B0B40002B0DD02A
:102060007B681B681969384B0B40002B08D17B68D3
:102070001B68D968344B0B40002B01D1542300E07E
:10208000FC2302FB03F33B6121E03B68B3F1FF3F1C
:102090001AD03B68002B07D0FFF772FD02467B6920
:1020A000D31A3A689A420FD2FB683A699A420BD91E
:1020B0007B689B6A43F004027B689A627B6800221B
:1020C00083F82420032330E0FB680133FB60FB68C6
:1020D0003A699A42D9D87B681B686FF012021A607D
:1020E0007B689B6A43F400727B689A627B681B681A
:1020F0009B6803F46023B3F5602F15D17B681B7BCD
:10210000002B11D17B689B6A23F480727B689A62F2
:102110007B689B6A03F48053002B05D17B689B6A24
:1021200043F001027B689A62002318461C37BD46C3
:1021300090BD00BF10000020244992242449920041
:1021400092244912922449004992240080B483B019
:1021500000AF78607B681B68DB6C18460C37BD46A7
:1021600080BC704780B485B000AF786039600023D0
:10217000FB730023BB607B6893F82430012B01D1F3
:102180000223DCE07B68012283F824203B685B6843
:10219000062B1CD87B681B68596B3B685A68134632
:1021A0009B001344053B1F2202FA03F3DB43194053
:1021B0003B6818683B685A6813469B001344053B0C
:1021C00000FA03F27B681B680A435A633CE03B68F1
:1021D0005B680C2B1CD87B681B68196B3B685A68C2
:1021E00013469B001344233B1F2202FA03F3DB43F5
:1021F00019403B6818683B685A6813469B001344B3
:10220000233B00FA03F27B681B680A431A631BE056
:102210007B681B68D96A3B685A6813469B00134465
:10222000413B1F2202FA03F3DB4319403B68186865
:102230003B685A6813469B001344413B00FA03F283
:102240007B681B680A43DA623B681B68092B1CD950
:102250007B681B68D9683B681A6813465B001344A7
:102260001E3B072202FA03F3DB4319403B689868E0
:102270003B681A6813465B0013441E3B00FA03F2E6
:102280007B681B680A43DA6019E07B681B68196980
:102290003B681A6813465B001344072202FA03F3F3
:1022A000DB4319403B6898683B681A6813465B003B
:1022B000134400FA03F27B681B680A431A613B6807
:1022C0001B68102B03D03B681B68112B32D17B6835
:1022D0001B681D4A934225D17B681B689B6803F4E9
:1022E0000003002B26D17B681B689A687B681B68FB
:1022F00042F400029A603B681B68102B1AD1134B02
:102300001B68134AA2FB03239A0C13469B00134439
:102310005B00BB6002E0BB68013BBB60BB68002B9D
:10232000F9D107E07B689B6A43F020027B689A62E0
:102330000123FB737B68002283F82420FB7B184673
:102340001437BD4680BC70470024014010000020B7
:1023500083DE1B4380B584B000AF78600023FB6050
:102360000023BB607B681B689B6803F00103012BA3
:1023700040D07B681B689A687B681B6842F001024A
:102380009A601F4B1B681F4AA2FB03239B0CBB6078
:1023900002E0BB68013BBB60BB68002BF9D1FFF7D3
:1023A000EFFBF8601FE0FFF7EBFB0246FB68D31A78
:1023B000022B18D97B681B689B6803F00103012B73
:1023C00011D07B689B6A43F010027B689A627B683D
:1023D000DB6A43F001027B68DA627B68002283F8E3
:1023E0002420012307E07B681B689B6803F001033E
:1023F000012BD8D1002318461037BD4680BD00BF41
:102400001000002083DE1B4380B584B000AF7860ED
:102410000023FB607B681B689B6803F00103012BB2
:102420002ED17B681B689A687B681B6822F00102CA
:102430009A60FFF7A5FBF8601BE0FFF7A1FB0246DF
:10244000FB68D31A022B14D97B681B689B6803F0C6
:102450000103012B0DD17B689B6A43F010027B685E
:102460009A627B68DB6A43F001027B68DA620123CF
:1024700007E07B681B689B6803F00103012BDCD03D
:10248000002318461037BD4680BD000080B485B0DB
:1024900000AF78607B6803F00703FB600C4BDB68E0
:1024A000BB60BA684FF6FF031340BB60FB681A02BB
:1024B000BB68134343F0BF6343F40033BB60044A7B
:1024C000BB68D36000BF1437BD4680BC704700BFF7
:1024D00000ED00E080B400AF044BDB681B0A03F0A2
:1024E00007031846BD4680BC704700BF00ED00E002
:1024F00080B483B000AF03463960FB7197F90730B1
:10250000002B0ADB3B68DAB20C4997F9073012015D
:10251000D2B20B4483F800230AE03B68DAB20849E0
:10252000FB7903F00F03043B1201D2B20B441A767D
:1025300000BF0C37BD4680BC704700BF00E100E023
:1025400000ED00E080B489B000AFF860B9607A6057
:10255000FB6803F00703FB61FB69C3F10703042B6E
:1025600028BF0423BB61FB690433062B02D9FB6936
:10257000033B00E000237B614FF0FF32BB6902FAAE
:1025800003F3DA43BB681A407B699A404FF0FF318E
:102590007B6901FA03F3D9437B680B401343184668
:1025A0002437BD4680BC704780B582B000AF7860EC
:1025B0007B68013BB3F1807F01D301230FE00A4A1E
:1025C0007B68013B53600F214FF0FF30FFF790FF16
:1025D000054B00229A60044B07221A60002318461C
:1025E0000837BD4680BD00BF10E000E080B582B076
:1025F00000AF78607868FFF749FF00BF0837BD4635
:1026000080BD80B586B000AF0346B9607A60FB73C9
:1026100000237B61FFF75EFF78617A68B9687869AB
:10262000FFF790FF024697F90F3011461846FFF763
:102630005FFF00BF1837BD4680BD80B582B000AFD8
:1026400078607868FFF7B0FF034618460837BD4644
:1026500080BD000080B48BB000AF7860396000238B
:102660007B6200233B6269E101227B6A02FA03F389
:10267000FB613B681B68FA691340BB61BA69FB697F
:102680009A4240F058813B685B689A4A93425ED018
:10269000984A934275D8984A934258D0964A9342A2
:1026A0006FD8964A934252D0944A934269D8944A3A
:1026B00093424CD0924A934263D8924A934246D076
:1026C000904A93425DD8122B2AD8122B59D801A2D6
:1026D00052F823F04F270008292700083B2700085D
:1026E0007D27000883270008832700088327000828
:1026F0008327000883270008832700088327000812
:102700008327000883270008832700088327000801
:102710008327000883270008312700084527000881
:10272000794A934213D02CE03B68DB683B6229E096
:102730003B68DB6804333B6224E03B68DB680833BA
:102740003B621FE03B68DB680C333B621AE03B688E
:102750009B68002B02D104233B6213E03B689B681B
:10276000012B05D108233B627B68FA691A6109E0F5
:1027700008233B627B68FA695A6103E000233B62ED
:1027800000E000BFBB69FF2B01D87B6801E07B68DC
:1027900004337B61BB69FF2B02D87B6A9B0002E09C
:1027A0007B6A083B9B003B617B691A680F213B6990
:1027B00001FA03F3DB431A40396A3B6901FA03F378
:1027C0001A437B691A603B685B6803F08053002BF7
:1027D00000F0B1804D4B9B694C4A43F0010393617B
:1027E0004A4B9B6903F00103BB60BB68484A7B6AA4
:1027F0009B08023352F82330FB607B6A03F003032B
:102800009B000F2202FA03F3DB43FA681340FB60DC
:102810007B68404A934213D07B683F4A93420DD075
:102820007B683E4A934207D07B683D4A934201D180
:10283000032306E0042304E0022302E0012300E076
:1028400000237A6A02F0030292009340FA6813436D
:10285000FB602F497B6A9B080233FA6841F823200A
:102860003B685B6803F48013002B06D02D4B9A68FD
:102870002C49BB6913438B6006E02A4B9A68BB69FD
:10288000DB43284913408B603B685B6803F400130B
:10289000002B06D0234BDA682249BB691343CB6077
:1028A00006E0204BDA68BB69DB431E491340CB606E
:1028B0003B685B6803F40033002B06D0194B5A6861
:1028C0001849BB6913434B6006E0164B5A68BB6955
:1028D000DB43144913404B603B685B6803F480336F
:1028E000002B21D00F4B1A680E49BB6913430B60B4
:1028F00021E000BF00003210000031100000221063
:102900000000211000001210000011100010024001
:102910000000014000080140000C0140001001408F
:1029200000140140000401400B4B1A68BB69DB43F3
:10293000094913400B607B6A01337B623B681A686C
:102940007B6A22FA03F3002B7FF48EAE00BF00BF38
:102950002C37BD4680BC70470004014080B483B072
:1029600000AF78600B467B8013467B707B78002B32
:1029700003D07A887B681A6103E07B881A047B683D
:102980001A6100BF0C37BD4680BC704780B483B06D
:1029900000AF78603960074B1B6823F07F027968CD
:1029A0003B680B43034913430B6000BF0C37BD4624
:1029B00080BC70470000014080B400AF044B1B682E
:1029C000034A43F08003136000BFBD4680BC7047DC
:1029D0000000014080B584B000AF78607B68002BB8
:1029E00001D101232BE17B6893F83D30DBB2002B52
:1029F00006D17B68002283F83C207868FEF7D2FF7E
:102A00007B68242283F83D207B681B681A687B68FA
:102A10001B6822F001021A607B681B681A687B68D9
:102A20001B6842F400421A607B681B681A687B6866
:102A30001B6822F400421A6001F032F8F8607B68EB
:102A40005B68814A934207D8FB68804A934294BFEF
:102A500001230023DBB206E0FB687D4A934294BF6A
:102A600001230023DBB2002B01D00123E7E0FB6848
:102A7000784AA2FB03239B0CBB607B681B685B68E6
:102A800023F03F017B681B68BA680A435A607B6881
:102A90001B681B6A23F03F017B685B686A4A9342AC
:102AA00002D8BB68013309E0BB684FF4967202FBA1
:102AB00003F3694AA2FB03239B0901337A68126876
:102AC0000B4313627B681B68DB6923F44F4222F0DF
:102AD000FF027B685B685C498B4219D8FB68591E12
:102AE0007B685B685B00B1FBF3F3591C40F6FC7339
:102AF0000B40002B0AD0FB68591E7B685B685B00AB
:102B0000B1FBF3F30133C3F30B0351E004234FE0B4
:102B10007B689B68002B11D1FB68581E7B68596845
:102B20000B465B000B44B0FBF3F30133C3F30B0321
:102B3000002B0CBF01230023DBB212E0FB68581E00
:102B40007B6859680B469B000B4499000B44B0FB13
:102B5000F3F30133C3F30B03002B0CBF012300235A
:102B6000DBB2002B01D0012322E07B689B68002BA5
:102B70000ED1FB68581E7B6859680B465B000B44FE
:102B8000B0FBF3F30133C3F30B0343F400430FE053
:102B9000FB68581E7B6859680B469B000B449900E4
:102BA0000B44B0FBF3F30133C3F30B0343F4404393
:102BB000796809681343CB617B681B681B6823F045
:102BC000C0017B68DA697B681B6A1A437B681B68F3
:102BD0000A431A607B681B689B6823F4034323F055
:102BE000FF037A6811697A68D26811437A681268BB
:102BF0000B4393607B681B68DB6823F0FF017B68F5
:102C00005A697B689B691A437B681B680A43DA60D0
:102C10007B681B681A687B681B6842F001021A60B7
:102C20007B6800221A647B68202283F83D207B6841
:102C300000221A637B68002283F83E200023184696
:102C40001037BD4680BD00BFA08601007F841E00F6
:102C5000FF083D0083DE1B43D34D621080B588B072
:102C600002AFF8607A601A460B467B8113463B81BF
:102C7000FEF786FF7861FB6893F83D30DBB2202BCE
:102C800040F0E0807B690093192301227049F868C5
:102C900000F064F90346002B01D00223D3E0FB6867
:102CA00093F83C30012B01D10223CCE0FB680122D8
:102CB00083F83C20FB681B681B6803F00103012BB1
:102CC00007D0FB681B681A68FB681B6842F00102AA
:102CD0001A60FB681B681A68FB681B6822F40062B4
:102CE0001A60FB68212283F83D20FB68102283F8DC
:102CF0003E20FB6800221A64FB687A685A62FB680F
:102D00003A895A85FB685B8D9AB2FB681A85FB6825
:102D1000504ADA6279897B693A6AF86800F09CF86F
:102D20000346002B01D001238DE000233B61FB68AB
:102D30001B685B693B61FB681B689B693B613B6986
:102D400066E07A69396AF86800F022FA0346002BD7
:102D50000DD0FB681B6C042B07D1FB681B681A683D
:102D6000FB681B6842F400721A6001236BE0FB6889
:102D70005B6A1A78FB681B681A61FB685B6A5A1CFD
:102D8000FB685A62FB685B8D9BB2013B9AB2FB68A1
:102D90005A85FB681B8D013B9AB2FB681A85FB685C
:102DA0001B685B6903F00403042B1BD1FB681B8DBC
:102DB000002B17D0FB685B6A1A78FB681B681A61E6
:102DC000FB685B6A5A1CFB685A62FB685B8D9BB2AE
:102DD000013B9AB2FB685A85FB681B8D013B9AB296
:102DE000FB681A857A69396AF86800F019FA0346AF
:102DF000002B0DD0FB681B6C042B07D1FB681B68F4
:102E00001A68FB681B6842F400721A6001231AE01A
:102E1000FB681B8D002B94D1FB681B681A68FB684C
:102E20001B6842F400721A60FB68202283F83D2080
:102E3000FB68002283F83E20FB68002283F83C20D8
:102E4000002300E0022318461837BD4680BD00BFAE
:102E5000020010000000FFFF80B588B002AFF860EC
:102E60007A603B600B467B81FB68DB6A7B617B6938
:102E7000082B06D07B69012B03D07B6913F5803FBB
:102E800008D1FB681B681A68FB681B6842F48072F3
:102E90001A600BE0FB681B6B122B07D1FB681B68E9
:102EA0001A68FB681B6842F480721A603B680093E2
:102EB0007B6800224FF00111F86800F04FF80346DC
:102EC000002B0DD0FB681B681B6803F48073B3F5FF
:102ED000807F03D1FB684FF400721A64032335E04E
:102EE000FB681B69B3F5804F08D17B89DBB21A46BA
:102EF000FB681B6802F0FE021A611BE07B89DB1194
:102F0000DBB203F00603DBB263F00F03DAB2FB6857
:102F10001B681A613B687A680E49F86800F098F8F7
:102F20000346002B01D0012310E07B89DAB2FB6855
:102F30001B681A613B687A680749F86800F088F8EE
:102F40000346002B01D0012300E000231846183768
:102F5000BD4680BD080001000200010080B584B0BC
:102F600000AFF860B9603B601346FB7148E03B6816
:102F7000B3F1FF3F44D0FEF703FE0246BB69D31A0C
:102F80003A689A4202D33B68002B39D1BB681B0CCC
:102F9000DBB2012B0DD1FB681B685B69DA43BB68B0
:102FA00013409BB2002B0CBF01230023DBB21A4657
:102FB0000CE0FB681B689B69DA43BB6813409BB25B
:102FC000002B0CBF01230023DBB21A46FB799A4287
:102FD00016D1FB6800221A63FB68202283F83D208B
:102FE000FB68002283F83E20FB681B6C43F0200244
:102FF000FB681A64FB68002283F83C20012323E06D
:10300000BB681B0CDBB2012B0DD1FB681B685B6935
:10301000DA43BB6813409BB2002B0CBF0123002393
:10302000DBB21A460CE0FB681B689B69DA43BB689D
:1030300013409BB2002B0CBF01230023DBB21A46C6
:10304000FB799A4293D0002318461037BD4680BDC5
:1030500080B584B000AFF860B9607A603B6071E021
:10306000FB681B685B6903F48063B3F5806F23D151
:10307000FB681B681A68FB681B6842F400721A60E0
:10308000FB681B686FF480625A61FB6800221A6358
:10309000FB68202283F83D20FB68002283F83E2055
:1030A000FB681B6C43F00402FB681A64FB68002297
:1030B00083F83C20012367E07B68B3F1FF3F41D0F8
:1030C000FEF75EFD02463B68D31A7A689A4202D345
:1030D0007B68002B36D1BB681B0CDBB2012B0CD1FB
:1030E000FB681B685B69DA43BB6813409BB2002B2B
:1030F00014BF01230023DBB20BE0FB681B689B6954
:10310000DA43BB6813409BB2002B14BF012300239A
:10311000DBB2002B16D0FB6800221A63FB6820226A
:1031200083F83D20FB68002283F83E20FB681B6C7F
:1031300043F02002FB681A64FB68002283F83C20FD
:10314000012321E0BB681B0CDBB2012B0CD1FB6817
:103150001B685B69DA43BB6813409BB2002B14BF4A
:1031600001230023DBB20BE0FB681B689B69DA4399
:10317000BB6813409BB2002B14BF01230023DBB2BA
:10318000002B7FF46DAF002318461037BD4680BD7D
:1031900080B584B000AFF860B9607A6034E0F86858
:1031A00000F086F80346002B01D0012334E0BB6811
:1031B000B3F1FF3F28D0FEF7E3FC02467B68D31A49
:1031C000BA689A4202D3BB68002B1DD1FB681B680A
:1031D0005B6903F08003802B16D0FB6800221A6322
:1031E000FB68202283F83D20FB68002283F83E2004
:1031F000FB681B6C43F02002FB681A64FB6800222A
:1032000083F83C20012307E0FB681B685B6903F03F
:103210008003802BC3D1002318461037BD4680BDE4
:1032200080B584B000AFF860B9607A6034E0F868C7
:1032300000F03EF80346002B01D0012334E0BB68C8
:10324000B3F1FF3F28D0FEF79BFC02467B68D31A00
:10325000BA689A4202D3BB68002B1DD1FB681B6879
:103260005B6903F00403042B16D0FB6800221A6389
:10327000FB68202283F83D20FB68002283F83E2073
:10328000FB681B6C43F02002FB681A64FB68002299
:1032900083F83C20012307E0FB681B685B6903F0AF
:1032A0000403042BC3D1002318461037BD4680BD4C
:1032B00080B483B000AF78607B681B685B6903F4FF
:1032C0008063B3F5806F1BD17B681B686FF48062ED
:1032D0005A617B6800221A637B68202283F83D20B4
:1032E0007B68002283F83E207B681B6C43F004025D
:1032F0007B681A647B68002283F83C20012300E08D
:10330000002318460C37BD4680BC704780B586B098
:1033100000AF78607B68002B01D1012372E27B68EB
:103320001B6803F00103002B00F08780924B5B6861
:1033300003F00C03042B0CD08F4B5B6803F00C03E1
:10334000082B12D18C4B5B6803F48033B3F5803FBC
:103350000BD1894B1B6803F40033002B6CD07B68C6
:103360005B68002B68D101234CE27B685B68B3F596
:10337000803F06D1804B1B687F4A43F48033136043
:103380002EE07B685B68002B0CD17B4B1B687A4A74
:1033900023F480331360784B1B68774A23F480232F
:1033A00013601DE07B685B68B3F5A02F0CD1724BF6
:1033B0001B68714A43F4802313606F4B1B686E4A8D
:1033C00043F4803313600BE06B4B1B686A4A23F4B1
:1033D00080331360684B1B68674A23F480231360B3
:1033E0007B685B68002B13D0FEF7CAFB386108E0EE
:1033F000FEF7C6FB02463B69D31A642B01D90323AF
:1034000000E25D4B1B6803F40033002BF0D014E0A6
:10341000FEF7B6FB386108E0FEF7B2FB02463B69F7
:10342000D31A642B01D90323ECE1534B1B6803F43B
:103430000033002BF0D100E000BF7B681B6803F075
:103440000203002B63D04C4B5B6803F00C03002B92
:103450000BD0494B5B6803F00C03082B1CD1464B87
:103460005B6803F48033002B16D1434B1B6803F0D9
:103470000203002B05D07B681B69012B01D00123BF
:10348000C0E13D4B1B6823F0F8027B685B69DB0001
:10349000394913430B603AE07B681B69002B20D04D
:1034A000364B01221A60FEF76BFB386108E0FEF72D
:1034B00067FB02463B69D31A022B01D90323A1E122
:1034C0002D4B1B6803F00203002BF0D02A4B1B6826
:1034D00023F0F8027B685B69DB00274913430B602C
:1034E00015E0264B00221A60FEF74AFB386108E01F
:1034F000FEF746FB02463B69D31A022B01D9032390
:1035000080E11D4B1B6803F00203002BF0D17B68A8
:103510001B6803F00803002B3AD07B689B69002BE3
:1035200019D0174B01221A60FEF72AFB386108E018
:10353000FEF726FB02463B69D31A022B01D903236F
:1035400060E10D4B5B6A03F00203002BF0D0012019
:1035500000F0CEFA1CE00A4B00221A60FEF710FBC6
:1035600038610FE0FEF70CFB02463B69D31A022BD1
:1035700008D9032346E100BF001002400000424288
:1035800080044242924B5B6A03F00203002BE9D1B4
:103590007B681B6803F00403002B00F0A680002367
:1035A000FB758B4BDB6903F08053002B0DD1884BEF
:1035B000DB69874A43F08053D361854BDB6903F0B5
:1035C0008053BB60BB680123FB75824B1B6803F40F
:1035D0008073002B18D17F4B1B687E4A43F48073A5
:1035E0001360FEF7CDFA386108E0FEF7C9FA02462B
:1035F0003B69D31A642B01D9032303E1754B1B6884
:1036000003F48073002BF0D07B68DB68012B06D1BC
:103610006F4B1B6A6E4A43F0010313622DE07B6817
:10362000DB68002B0CD16A4B1B6A694A23F001034B
:103630001362674B1B6A664A23F0040313621CE0A3
:103640007B68DB68052B0CD1614B1B6A604A43F039
:10365000040313625E4B1B6A5D4A43F0010313626D
:103660000BE05B4B1B6A5A4A23F001031362584B71
:103670001B6A574A23F0040313627B68DB68002B44
:1036800015D0FEF77DFA38610AE0FEF779FA0246B6
:103690003B69D31A41F28832934201D90323B1E046
:1036A0004B4B1B6A03F00203002BEED014E0FEF735
:1036B00067FA38610AE0FEF763FA02463B69D31AFB
:1036C00041F28832934201D903239BE0404B1B6AAD
:1036D00003F00203002BEED1FB7D012B05D13C4B07
:1036E000DB693B4A23F08053D3617B68DB69002BA5
:1036F00000F08780364B5B6803F00C03082B61D029
:103700007B68DB69022B46D1334B00221A60FEF73F
:1037100037FA386108E0FEF733FA02463B69D31AFC
:10372000022B01D903236DE0294B1B6803F00073C2
:10373000002BF0D17B681B6AB3F5803F08D1244B86
:103740005B6823F400327B689B68214913434B601C
:103750001F4B5B6823F474127B68196A7B685B6A91
:103760000B431B4913434B601B4B01221A60FEF7AE
:1037700007FA386108E0FEF703FA02463B69D31AFC
:10378000022B01D903233DE0114B1B6803F00073AA
:10379000002BF0D035E0104B00221A60FEF7F0F954
:1037A000386108E0FEF7ECF902463B69D31A022BB8
:1037B00001D9032326E0064B1B6803F00073002B9E
:1037C000F0D11EE07B68DB69012B07D1012319E0F2
:1037D0000010024000700040600042420B4B5B68EA
:1037E000FB60FB6803F480327B681B6A9A4206D157
:1037F000FB6803F470127B685B6A9A4201D0012374
:1038000000E0002318461837BD4680BD0010024076
:1038100080B584B000AF786039607B68002B01D13F
:103820000123D0E06A4B1B6803F007033A689A4211
:1038300010D9674B1B6823F0070265493B681343A7
:103840000B60634B1B6803F007033A689A4201D090
:103850000123B8E07B681B6803F00203002B20D033
:103860007B681B6803F00403002B05D0594B5B6891
:10387000584A43F4E06353607B681B6803F0080315
:10388000002B05D0534B5B68524A43F4605353609E
:10389000504B5B6823F0F0027B689B684D491343F3
:1038A0004B607B681B6803F00103002B40D07B68F2
:1038B0005B68012B07D1474B1B6803F40033002BD7
:1038C00015D101237FE07B685B68022B07D1414B58
:1038D0001B6803F00073002B09D1012373E03D4BFB
:1038E0001B6803F00203002B01D101236BE0394B6D
:1038F0005B6823F003027B685B68364913434B60C7
:10390000FEF73EF9F8600AE0FEF73AF90246FB6876
:10391000D31A41F28832934201D9032353E02D4B4D
:103920005B6803F00C027B685B689B009A42EBD1FA
:10393000274B1B6803F007033A689A4210D2244BC6
:103940001B6823F0070222493B6813430B60204B9E
:103950001B6803F007033A689A4201D0012332E062
:103960007B681B6803F00403002B08D0194B5B68CD
:1039700023F4E0627B68DB68164913434B607B6885
:103980001B6803F00803002B09D0124B5B6823F47B
:1039900060527B681B69DB000E4913434B6000F0EB
:1039A00021F802460B4B5B681B0903F00F030A4921
:1039B000CB5C22FA03F3094A1360094B1B681846D3
:1039C000FEF79CF8002318461037BD4680BD00BFA7
:1039D0000020024000100240485200081000002061
:1039E0001400002080B487B000AF0023FB600023E8
:1039F000BB6000237B6100237B6000233B611E4B87
:103A00005B68FB60FB6803F00C03042B02D0082BFF
:103A100003D027E0194B3B6127E0FB689B0C03F0C8
:103A20000F03174AD35C7B60FB6803F48033002BE1
:103A300010D0114B5B685B0C03F00103114AD35C9F
:103A4000BB607B680D4A03FB02F2BB68B2FBF3F379
:103A50007B6104E07B680C4A02FB03F37B617B69BA
:103A60003B6102E0054B3B6100BF3B6918461C37D8
:103A7000BD4680BC704700BF0010024000127A00B3
:103A8000605200087052000800093D0080B400AF89
:103A9000024B1B681846BD4680BC704710000020D2
:103AA00080B500AFFFF7F2FF0246054B5B681B0ACB
:103AB00003F007030349CB5C22FA03F3184680BDE9
:103AC000001002405852000880B500AFFFF7DEFF3B
:103AD0000246054B5B68DB0A03F007030349CB5C36
:103AE00022FA03F3184680BD001002405852000825
:103AF00080B485B000AF78600A4B1B680A4AA2FB0D
:103B000003235B0A7A6802FB03F3FB6000BFFB68D8
:103B10005A1EFA60002BF9D100BF00BF1437BD4612
:103B200080BC704710000020D34D621080B586B075
:103B300000AF786000233B610023FB607B681B685B
:103B400003F00103002B7DD00023FB754F4BDB6995
:103B500003F08053002B0DD14C4BDB694B4A43F0F3
:103B60008053D361494BDB6903F08053BB60BB6872
:103B70000123FB75464B1B6803F48073002B18D19F
:103B8000434B1B68424A43F480731360FDF7F8FF10
:103B9000386108E0FDF7F4FF02463B69D31A642B55
:103BA00001D903236DE03A4B1B6803F48073002BAB
:103BB000F0D0364B1B6A03F44073FB60FB68002BAC
:103BC0002ED07B685B6803F44073FA689A4227D072
:103BD0002E4B1B6A23F44073FB602E4B01221A60AC
:103BE0002C4B00221A60294AFB681362FB6803F021
:103BF0000103002B14D0FDF7C3FF38610AE0FDF785
:103C0000BFFF02463B69D31A41F28832934201D981
:103C1000032336E01D4B1B6A03F00203002BEED09A
:103C20001A4B1B6A23F440727B685B681749134385
:103C30000B62FB7D012B05D1144BDB69134A23F08A
:103C40008053D3617B681B6803F00203002B08D00C
:103C50000E4B5B6823F440427B689B680B4913431F
:103C60004B607B681B6803F01003002B08D0074BE8
:103C70005B6823F480027B68DB68044913434B6074
:103C8000002318461837BD4680BD00BF0010024013
:103C9000007000404004424280B588B000AF7860B8
:103CA00000237B610023FB6100233B610023FB6059
:103CB0000023BB617B68102B0AD07B68102B00F2BD
:103CC0008A807B68012B45D07B68022B75D082E00F
:103CD000464B5B68FB60454B1B6803F08073002B11
:103CE0007BD0FB689B0C03F00F03414AD35C3B6124
:103CF000FB6803F48033002B15D03C4B5B685B0CF6
:103D000003F001033B4AD35C7B61FB6803F480331F
:103D1000002B0DD0384A7B69B2FBF3F23B6902FB02
:103D200003F3FB6104E03B69344A02FB03F3FB61EC
:103D30002E4B5B6803F48003B3F5800F02D1FB695F
:103D4000BB614AE0FB695B002D4AA2FB03235B08D1
:103D5000BB6142E0254B1B6AFB60FB6803F44073C8
:103D6000B3F5807F08D1FB6803F00203002B03D07A
:103D70004FF40043BB611FE0FB6803F44073B3F5ED
:103D8000007F09D1194B5B6A03F00203002B03D0BB
:103D900049F64043BB610FE0FB6803F44073B3F5A1
:103DA000407F1CD1114B1B6803F40033002B16D04D
:103DB0004FF22443BB6112E011E0FFF785FE02469B
:103DC0000A4B5B689B0B03F0030301335B00B2FB00
:103DD000F3F3BB6104E000BF02E000BF00E000BFFE
:103DE000BB6918462037BD4680BD00BF00100240A9
:103DF000745200088452000800127A0000093D0045
:103E0000ABAAAAAA931E222B10B50C4604D90023F4
:103E10001C460B70204610BD0A2A09D1002807DA7B
:103E20002D230B7001214042214400F005F8F1E7F9
:103E30000021F9E7FFF7E6BFF0B58BB005460B466A
:103E40006E461D4C04F1200C37462068616808342A
:103E500003C764453E46F7D1217920683971911E28
:103E6000222938604FF0000104D919700B4618461A
:103E70000BB0F0BD581E8446B5FBF2F702FB175697
:103E800028366E4416F8286C0C460CF8016F2E4646
:103E9000B2423D4601F10101EED900225A541919EE
:103EA000A51AAA42E3DA10F8015F0E780132067013
:103EB00001F80159F4E700BF8652000803460244A6
:103EC000934200D1704703F8011BF9E7014B1868D2
:103ED000704700BF1C00002070B500260C4D0D4C33
:103EE000641BA410A64209D101F090F900260A4DE6
:103EF0000A4C641BA410A64205D170BD55F8043BC2
:103F000098470136EEE755F8043B98470136F2E74B
:103F1000E0520008E0520008E0520008E4520008B5
:103F2000F8B504460D4600F0A3F8224606460F46B3
:103F30002B4620462946FCF761FD98B90022002354
:103F400020462946FCF73CFD60B1002200232046B4
:103F50002946FCF721FD40B1FFF7B8FF22230026D8
:103F6000064F036030463946F8BDFFF7AFFF212307
:103F700003600348BDE8F84000F072B80000F0FFAD
:103F8000AA5200082DE9F84314461D46804689468A
:103F900000F0EAF8224606460F462B462046294600
:103FA000FCF72CFDC8BB0022002340464946FCF725
:103FB000F3FCB8B10022002320462946FCF7ECFCB4
:103FC000002841D12046294600F044F828B30022B9
:103FD000002320462946FCF7E9FCF0B1FFF776FF05
:103FE000222319E03046394600F034F8C8B940467B
:103FF000494600F02FF8A0B12046294600F02AF8E3
:1040000078B132463B4630463946FCF7F7FC00288B
:10401000E4D0FFF75BFF2123036030463946BDE85B
:10402000F8830022002330463946FCF7B5FC00280F
:10403000F3D04046494600F00DF80028EDD0204668
:10404000294600F007F8C8E70026014FE5E700BF62
:104050000000F03F41F0004000F58010C00F7047B5
:1040600000200149704700BF0000F87F00000000F9
:10407000B1F5801F2DE9F84304460D460B4626DABC
:1040800021F00042024307D10022002300203249E0
:10409000FCF744FBBDE8F883002905DA0246FCF78B
:1040A0005BF800220023F3E700222C4BFCF70CFA0C
:1040B0006FF0350204460D460B4629498B4208DD58
:1040C00022462B4620462946FCF748F8E2E7002224
:1040D000F3E71815A0F2FF3010444FEAD07900EB57
:1040E000D070C3F31308FCF785F9C9F57F73033368
:1040F00048EA035512A3D3E9002306460F46FCF70E
:10410000E3F9804689462046294600F0CDFE0EA3FD
:10411000D3E90023FCF7D8F942464B46FCF71EF8DA
:104120000BA3D3E9002304460D4630463946FCF77D
:10413000CBF902460B4620462946C5E7AFF300807F
:10414000362BF111F3FE593D0EE526157BCBDB3FF7
:1041500000609F501344D33F000050C30000504301
:10416000FFFFEF7F000000002DE9F04F91B0CDE997
:1041700000238B46DDE9001828F00047824657EA05
:10418000010012D153468BF40022DB1852419842B1
:10419000914B934180F0CE84DDE90023504659468F
:1041A000FBF7DCFF11B0BDE8F08F8C4B2BF0004625
:1041B0009E425D46D14607D802D1BAF1000FEBD13D
:1041C0009F4201D80FD171B105F1404505F5801529
:1041D00055EA0905E0D1DDE90032DB1882F400225E
:1041E00052419D42D4E7002D334639DA7C4A97424A
:1041F0004ED8A2F15472974240F2AB843A15A2F223
:10420000FF32142A0FDDC2F1340221FA02F404FA5B
:1042100002F28A4240F09D8404F00104C4F10204D9
:1042200000295AD10EE0002956D1C2F1140247FAF2
:1042300002F404FA02F2BA4240F0888404F0010465
:10424000C4F10204674A974230D1B8F1000F80F2FE
:10425000798452465B4600206249FCF75FFAA1E789
:104260000024002939D15D4A9742EBD106F1404341
:1042700003F5801353EA090300F05C845A4B9E4215
:1042800008D9B8F1000FC0F25984DDE9000189E7CF
:104290000224E6E7B8F1000F4FF000004FF00001F4
:1042A00080DADDE9000303F100417BE7B8F1804FDC
:1042B00006D152465B4650465946FCF705F971E770
:1042C0004A4A904509D1002D07DB5046594611B0A6
:1042D000BDE8F04F00F012BD00245046594602934D
:1042E00000F06AFC029BB9F1000F27D13D4A25F08E
:1042F000404C944500D00EBBB8F1000F05DA0246E1
:104300000B4600203749FCF709FA002DBFF64AAFEB
:1043100006F1404606F58016264308D102460B46B4
:1043200010461946FBF718FF02460B4695E7012C8D
:104330007FF438AF01F10043194633E7EA0F013A41
:1043400052EA040C02D152465B46E9E74FF00009FD
:10435000013C144314BFDFF88CA0DFF894A0B7F140
:10436000844FCDE9029A40F20781224B9F421E4BB7
:1043700013D99E4208D8B8F1000F08DA002011B016
:10438000BDE8F04F00F0B4BCB8F1000FF6DC00203F
:1043900011B0BDE8F04F00F0A6BC9E420CD2DDE9A2
:1043A000020100220023FCF701FB003818BF0120A6
:1043B000B8F1000FECDAE2E70A4B00229E421BD96B
:1043C000DDE902010023FCF7F1FA003818BF0120F3
:1043D000B8F1000FD3DCDBE70000F0FF0000F07F56
:1043E000FFFF3F430000F03FFFFFEF3F0000E03FD3
:1043F0000000F0BF0000F0435B4BFBF7ADFE52A3A3
:10440000D3E9002304460D46FCF75EF850A3D3E938
:10441000002306460F4620462946FCF755F80022A1
:1044200082468B4620462946504BFCF74DF8024603
:104430000B4649A1D1E90001FBF78EFE22462B462F
:10444000FCF742F802460B4600204949FBF784FE80
:104450002246804689462B4620462946FCF734F8FA
:1044600002460B4640464946FCF72EF83CA3D3E9EA
:104470000023FCF729F802460B4650465946FBF745
:104480006BFE002402460B4680468946304639467C
:10449000FBF764FE32463B4620460D46FBF75CFECA
:1044A00002460B4640464946FBF756FEDDE900232F
:1044B000CDE9042300230493DDE904AB06460F464F
:1044C000DDE9000152465B46FBF746FE22462B46DD
:1044D000FBF7FAFFDDE9002380468946304639467E
:1044E000FBF7F2FF02460B4640464946FBF736FE15
:1044F00052465B4606460F4620462946FBF7E4FF38
:104500000B4602468046894630463946FBF726FE72
:10451000184B044699420D468A468B4640F3E0828A
:1045200001F13F4303F5E003034300F0DF81DDE9E0
:10453000020100220023FCF739FA003818BF0120DD
:104540001DE700BFAFF30080000000604715F73F94
:1045500044DF5DF80BAE543E555555555555D53F86
:10456000FE822B654715F73F0000F03F0000D03F6B
:104570000000E03FFFFF8F40D34A2A40002A40F06E
:104580007A81D24B0022FBF79FFF6FF034040B4679
:104590001A15A2F2FF3222440A92CD4AC3F3130342
:1045A00043F07F55934245F4401508DDC94A9342D4
:1045B00040F363810A9BA5F5801501330A93002619
:1045C000F3000B93C44B294603EBC603D3E9003435
:1045D0001A46CDE9083423468246FBF7BDFD524614
:1045E0002B46CDE90C01DDE90801FBF7B7FD0246DA
:1045F0000B460020B949FCF791F802460B46CDE97D
:104600000E01DDE90C01FBF75FFFCDE90601DDE9F5
:104610000634CDE9043400230022AB466D1045F08A
:104620000055049305F50025DDE9048905EB864373
:104630004046494614461D46FBF746FF02460B46D8
:10464000DDE90C01FBF788FDDDE9082306460F468E
:1046500020462946FBF780FD02460B465046594648
:10466000FBF77AFD42464B46FBF72EFF02460B4610
:1046700030463946FBF770FDDDE90E23FBF724FFDA
:10468000DDE90623CDE9080110461946FBF71CFFBA
:104690007BA3D3E9002304460D46FBF715FF7AA35D
:1046A000D3E90023FBF75AFD22462B46FBF70CFF0C
:1046B00077A3D3E90023FBF751FD22462B46FBF7F6
:1046C00003FF75A3D3E90023FBF748FD22462B46E1
:1046D000FBF7FAFE72A3D3E90023FBF73FFD224666
:1046E0002B46FBF7F1FE70A3D3E90023FBF736FD61
:1046F000224606460F462B4620462946FBF7E4FE97
:1047000002460B4630463946FBF7DEFE04460D46B0
:10471000DDE9060142464B46FBF720FDDDE90823B3
:10472000FBF7D2FE22462B46FBF718FD4246824697
:104730008B464B4640464946FBF7C6FE0022684B77
:1047400006460F46FBF70AFD52465B46FBF706FDA1
:1047500000240D4622460B4640464946FBF7B4FE70
:10476000002280468946204629465D4BFBF7F4FC33
:1047700032463B46FBF7F0FC02460B465046594694
:10478000FBF7EAFCDDE90623FBF79EFE2246064620
:104790000F46DDE908012B46FBF796FE02460B4665
:1047A00030463946FBF7DAFC002406460F4602463F
:1047B0000B4640464946FBF7D1FC3DA3D3E9002315
:1047C00020460D46FBF780FE42464B46CDE90601EA
:1047D00020462946FBF7C0FC02460B4630463946C8
:1047E000FBF7BAFC34A3D3E90023FBF76DFE34A337
:1047F000D3E9002306460F4620462946FBF764FE10
:1048000002460B4630463946FBF7A8FC0B9A354B5F
:1048100000241344D3E90023FBF7A0FC82460A9846
:104820008B46FBF7E7FD06460F460B9A2E4B1344CB
:10483000D3E900895246DDE906015B46FBF78EFCB1
:1048400042464B46FBF78AFC32463B46FBF786FC6A
:1048500032463B4620460D46FBF77EFC42464B4621
:10486000FBF77AFCDDE90623FBF776FC02460B46F4
:104870005046594618E600248AE60126A0E600BF05
:10488000EF4E454A287ECA3F65DBC9934A86CD3F35
:1048900001411DA96074D13F4D268F515555D53F1B
:1048A000FFAB6FDBB66DDB3F033333333333E33FB3
:1048B000000000E009C7EE3FFD033ADC09C7EE3F08
:1048C000F5015B14E02F3EBE0000F07F0000404386
:1048D0008E98030079B60B00D05200080000F03F1C
:1048E00000000840B0520008C05200089AA3D3E963
:1048F000002330463946FBF731FC4246CDE9000142
:104900004B4620462946FBF727FC02460B46DDE9CD
:104910000001FCF769F800287FF409AE4FF480131A
:104920004FEA2A5AAAF2FE3A43FA0AFADA44CAF3DA
:104930000A519B48A1F2FF31084100EA0A03CAF379
:10494000130AC1F114014AF4801A40464AFA01FAE6
:10495000BBF1000F49464FF00002B8BFCAF1000A90
:10496000FBF7FAFB80468946002432463B46404628
:104970004946FBF7F3FB7AA3D3E9002320460D4613
:10498000FBF7A2FD42464B46CDE9000120462946F1
:10499000FBF7E2FB02460B4630463946FBF7DCFBF1
:1049A00071A3D3E90023FBF78FFD71A3D3E90023A3
:1049B0008046894620462946FBF786FD02460B467F
:1049C00040464946FBF7CAFB04460D4602460B46E5
:1049D000DDE90001FBF7C2FBDDE9002380468946E3
:1049E000FBF7BAFB02460B4620462946FBF7B4FB11
:1049F000424606460F464B4640464946FBF764FD95
:104A00005DA3D3E9002304460D46FBF75DFD5CA3DF
:104A1000D3E90023FBF7A0FB22462B46FBF754FD0E
:104A200059A3D3E90023FBF799FB22462B46FBF75A
:104A30004BFD57A3D3E90023FBF78EFB22462B4601
:104A4000FBF742FD54A3D3E90023FBF787FB224683
:104A50002B46FBF739FD02460B4640464946FBF71D
:104A60007BFB04460D4602460B4640464946FBF793
:104A70002BFD0022CDE900014FF08043204629465E
:104A8000FBF76AFB02460B46DDE90001FBF746FE39
:104A9000324604460D463B4640464946FBF714FD68
:104AA00032463B46FBF75AFB02460B462046294658
:104AB000FBF752FB42464B46FBF74EFB02460B46CA
:104AC00000203849FBF748FB01EB0A54B4F5801F7E
:104AD0002EDA524600F074F8DDE90223FFF7EDBB51
:104AE000314C21F00043A3421AD9304B0B4403430D
:104AF00009D0DDE9020100220023FBF757FF00384F
:104B000018BF012044E442464B46FBF725FB3246E2
:104B10003B46FBF75FFF0028EBD1DFF894A0FDE6F2
:104B20009A46244B9A453FF6F9AEDDF810A01BE7F4
:104B30002146D1E700201B49FFF734BB00200021AC
:104B4000FFF730BB50465946FFF72CBB0C46FFF72A
:104B500079BB0024FFF764BBFE822B654715973CA9
:104B600000000000432EE63FEF39FAFE422EE63FFA
:104B7000396CA80C615C20BED0A4BE726937663E59
:104B8000F16BD2C541BDBB3E2CDE25AF6A56113F4D
:104B900093BDBE166CC1663F3E5555555555C53F34
:104BA0000000F0FF0000F03FFFCB904000346F3F6B
:104BB00000CC90400000E03F21F0004319467047D0
:104BC0002DE9F0481646C1F30A5283468C460B463F
:104BD00082B921F00043034339D02F4B0022FBF769
:104BE00073FC2E4B83469E428C460DDA26A3D3E9F6
:104BF00000231BE040F2FF77BA4209D10246FBF7DF
:104C0000ADFA83468C4622E00B46C1F30A52363A8F
:104C10004CF250318E420CDD1DA3D3E900231C461B
:104C20004FEADC7161F3DF7421461D48FBF74CFC51
:104C3000E7E740F2FE7132448A42EDDC002A0ADDE9
:104C400023F0FF4323F4E00343EA0255AC46584601
:104C50006146BDE8F08812F1350F09DA0CF0004327
:104C600043F0D27141F4B7310E4841F01F01BDE766
:104C700023F0FF43363223F4E00343EA025558465B
:104C800029460022084BD1E759F3F8C21F6EA5014F
:104C90009C7500883CE4377E00005043B03CFFFF29
:104CA0009C75008859F3F8C20000903C70B504462A
:104CB0000D461646FFF70AF929460660204670BDE4
:104CC00013B50446194610460CB103F10043CDE973
:104CD0000023DDE90023FBF7F7FB222202B0BDE849
:104CE0001040FFF7E3BF00224FF08053FFF7E8BF0B
:104CF00000224FF0E043FFF7E3BF0000674A2DE9D1
:104D0000F84F8A4306460F460B4604460ED102462C
:104D1000FBF7DAFB02460B4630463946FBF71EFA34
:104D200006460F4630463946BDE8F88F00290CDCB0
:104D300021F000420243F5D089B10246FBF70CFA9C
:104D400002460B46FBF7EAFCEAE70A1515D10021FB
:104D500009E0E30A153A6405002BFAD0F7E70A46A2
:104D6000FAE75B000131D802FBD5481E121AC1F1E7
:104D7000200024FA00F003438C400026A2F2FF3703
:104D80001621D2074FF400103246C3F3130343F445
:104D900080135CBF5B0003EBD4734FEA430358BF3F
:104DA000640003EBD4737F10640015189D42DEBFCE
:104DB0002A185B1B3618E50F013905EB43034FEA50
:104DC00044044FEA5000F0D10D464FF0200A4FF056
:104DD00000409A4201EB000C02DB13D1A44511D82C
:104DE000BCF1000F0CEB000142DA002940DB02F1BC
:104DF000010E9B1A7246A44588BF03F1FF33A4EB52
:104E00000C0405444FEAD47CBAF1010A0CEB4303CD
:104E10004FEA44044FEA5000DBD11C431AD0204C27
:104E2000DFF880B0D4E90001DBE90023FBF794F957
:104E3000D4E9008902460B4640464946FBF7C0FDCF
:104E400040B1D4E90001DBE90023B5F1FF3F11D106
:104E50005546013672106B08F10702F17F5202F5D8
:104E6000001248BF43F00043184602EB075157E7D2
:104E70009646BEE7FBF772F9D4E9008902460B4675
:104E800040464946FBF792FD20B1A81C08BF0136F9
:104E90000235DFE76B1C23F00105DBE70000F07F44
:104EA00078000020700000202DE9F04FB1F5801F40
:104EB00002460B460D4687B024DA21F00044044335
:104EC00008D1002200230020CB49FBF727FC07B0C4
:104ED000BDE8F08F002904DAFBF73EF90022002339
:104EE000F3E70022C54BFBF7EFFA0B460D460246EF
:104EF0006FF03501C248854206DD10461946FBF7C2
:104F00002DF9E4E70021F5E72C15A4F2FF34C5F3F1
:104F100013050C4405F5152101F6647101F48016A2
:104F200086F07F5181F4401141EA0503104619468D
:104F30000022B44BFBF710F9AB1CC3F31303022B95
:104F400082468B464FF0000204EB165453DC0023DC
:104F5000FBF722FDD0B1002C00F020812046FBF7AA
:104F600049FA91A3D3E9002306460F46FBF7ACFAB2
:104F70008FA3D3E9002304460D4630463946FBF79C
:104F8000A3FA02460B4620462946B8E78AA3D3E98E
:104F9000002350465946FBF797FA02460B4600207D
:104FA0009949FBF7D9F8524606460F465B465046EC
:104FB0005946FBF789FA02460B4630463946FBF75D
:104FC00083FA06460F4614B932463B46A0E0204617
:104FD000FBF710FA74A3D3E9002380468946FBF758
:104FE00073FA73A3D3E9002304460D4640464946AD
:104FF000FBF76AFAA5E04FF08043FBF7AFF80246F3
:105000000B4650465946FBF789FBCDE90001204687
:10501000FBF7F0F9DDE90023CDE90201104619465E
:10502000FBF752FA02460B46CDE90423FBF74CFA94
:1050300063A3D3E9002380468946FBF745FA62A3C0
:10504000D3E90023FBF78AF842464B46FBF73CFACC
:105050005FA3D3E90023FBF781F842464B46FBF7F9
:1050600033FA5DA3D3E90023FBF778F8DDE90423E5
:10507000FBF72AFA5AA3D3E90023CDE904014046FD
:105080004946FBF721FA58A3D3E90023FBF766F85A
:1050900042464B46FBF718FA55A3D3E90023FBF72A
:1050A0005DF842464B46FBF70FFA02460B46DDE938
:1050B0000401FBF753F8A5F5C226C5F5D725A6F2DE
:1050C0007A4651353543002D8046894648DD002219
:1050D0004D4B50465946FBF7F7F952465B46FBF7F6
:1050E000F3F902460B4606460F4640464946FBF793
:1050F00035F8DDE90023FBF7E7F98046894664B916
:1051000002460B4630463946FBF726F802460B4668
:1051100050465946FBF720F8D9E623A3D3E90023EC
:10512000DDE90201FBF7D0F921A3D3E9002304460E
:105130000D46DDE90201FBF7C7F942464B46FBF796
:105140000DF802460B4630463946FBF705F8524645
:105150005B46FBF701F802460B4620462946D9E795
:1051600002460B4650465946FAF7F6FFDDE90023A2
:10517000FBF7AAF906460F46002C3FF425AF0AA319
:10518000D3E90023DDE90201FBF79EF908A3D3E987
:10519000002304460D46DDE9020129E70020002135
:1051A00095E600BFAFF300800000E0FE422EE63F30
:1051B000763C7935EF39EA3D555555555555D53F2E
:1051C00044523EDF12F1C23FDE03CB966446C73F36
:1051D000599322942449D23F935555555555E53F4F
:1051E0009FC678D0099AC33FAF788E1DC571CC3F5A
:1051F00004FA97999999D93F000050C30000504391
:10520000FFFFEF7F0000F03F0000E03FF8B500BF78
:10521000F8BC08BC9E467047F8B500BFF8BC08BC97
:045220009E467047EF
:1052280000000000400000001400000054000000CE
:105238006E6F6E6720646F206B686920676100007D
:10524800000000000000000001020304060708092E
:105258000000000001020304020304050607080910
:105268000A0B0C0D0E0F10100102000002030405BA
:10527800060708090A0B0C0D0E0F10100102303139
:105288003233343536373839616263646566676846
:10529800696A6B6C6D6E6F707172737475767778FE
:1052A800797A000000000000000000000000000003
:1052B80006D0CF43EBFD4C3E00000000000000008C
:1052C8000000004003B8E23F000000000000F03F8B
:0852D800000000000000F83F97
:0452E000350100088C
:0452E40011010008AC
:1052E80000191B060C1B13001818060908090600EC
:1052F8000024F4001000000001000000200000203D
:105308000000000058010020C001002028020020F1
:105318000000000000000000000000000000000085
:105328000000000000000000000000000000000075
:105338000000000000000000000000000000000065
:105348000000000000000000000000000000000055
:1053580059F3F8C21F6EA501000000000000F03FDD
:0400000508001A8550
:00000001FF
